:0400000091EF00F08C
:1000080000C019F001C018F002C017F003C016F0C4
:1000180004C015F0E9CF1AF0EACF1BF09EA245D034
:100028000201EC4BED2B010EED5D02E1670EEC5D7C
:1000380002E3EC6BED6BECC200F0EDC201F00036B0
:10004800009001361C0E0024E96E000E0120EA6EB5
:10005800EECF03F0EECF04F003C0EEF204C0EFF2EF
:1000680003C000F004C001F001320032019E0132E9
:100078000032019E00C0BEFF03C0F0F204C0F1F2DE
:10008800010EF26F21D800B002D0BD9A01D0BD8A0E
:10009800EEC2F0F2EFC2F1F20201F26B15D800B035
:1000A80002D0BD9801D0BD889E9219C000F018C03A
:1000B80001F017C002F016C003F015C004F01AC012
:0800C800E9FF1BC0EAFF110073
:1000D000F2C202F0010E006E000E016E025005E049
:1000E000003600900136FF0FFAD700500201F015DC
:1000F000026EF1510114036E000E006E0350005C9D
:1001000002E10250000803E2010E006E01D0006A15
:020110001200DB
:100112000900F5CFE6FF0006FBE10106F9E1120056
:100122004EEC02F00F0EC16E400EF26E926A946AAD
:100132002C0EBD6ECA6ACA92CA808F0ECB6E0201A5
:10014200EC6BED6B006A016A1C0E0024E96E000E76
:100152000120EA6EEECF03F0EECF04F003C0EEF220
:1001620004C0EFF203C000F004C001F0013200321B
:10017200019E01320032019E00C0BEFF020E031436
:10018200016E0450000B026E000E006E0250005C05
:1001920002E10150000802E2BD8A01D0BD9A010EBF
:1001A200EE15016EEF51000B026E000E006E025052
:1001B200005C02E10150000802E2BD8801D0BD9856
:0A01C2009E929D82F28ECA84FFD740
:10049C0010EE1CF0D00E006E030E016ECC0EF66E3C
:0E04AC00010EF76E000EF86E89EC00F01200E3
:1001CC00E800EC00EF00F300F700FA000101050174
:1001DC0009010C011001140117011B011E01220160
:1001EC0029012D013101340138013B013F0143014B
:1001FC0046014A014E015101550158015C01600153
:10020C00630167016B016E016E0172017501790169
:10021C007D0180018401880188018B018F0192018D
:10022C00920196019A019D019D01A101A501A501D3
:10023C00A801AC01AC01AF01AF01B301B301B7012F
:10024C00B701BA01BA01BE01BE01C201C201C201AD
:10025C00C501C501C501C901C901C901C901CC014B
:10026C00CC01CC01CC01CC01CC01CC01D001D00112
:10027C00D001D001D001D001D001D001D001CC01EE
:10028C00CC01CC01CC01CC01CC01C901C901C90103
:10029C00C901C501C501C501C201C201C201BE012E
:1002AC00BE01BA01BA01BA01B701B701B301B3017A
:1002BC00AF01AC01AC01A801A801A501A101A101EC
:1002CC009D019A019A01960192018F018F018B0178
:1002DC008801840180017D017D0179017501720124
:1002EC006E016B016701630160015C0158015501EE
:1002FC0051014E014A01460143013F013B013801C6
:10030C00340131012D012901260122011E011B019D
:10031C00170114010C01090105010101FE00FA008D
:10032C00F700F300EF00E800E400E100DD00DA0084
:10033C00D600D200CF00C700C400C000BD00B90079
:10034C00B500B200AE00AA00A700A300A000980060
:10035C00950091008D008A00860083007F007B0051
:10036C007800740070006D0069006900660062001E
:10037C005E005B005700530050004C004C004900DD
:10038C00450041003E003E003A0036003300330089
:10039C002F002C002C002800280024002100210014
:1003AC001D001D0019001900160016001200120085
:1003BC000F000F000F000B000B000B0007000700D5
:1003CC000700040004000400040004000400000002
:1003DC000000000000000000000000000000000011
:1003EC0000000000000000000000040004000400F5
:1003FC000400040007000700070007000B000B00B7
:10040C000B000F000F001200120012001600160055
:10041C00190019001D001D002100240024002800D3
:10042C0028002C002F002F00330036003A003A0031
:10043C003E0041004500450049004C00500053006F
:10044C00570057005B005E006200660069006D009B
:10045C007000740078007B007F00830086008A00A7
:10046C008D009100950098009C00A000A300A700AF
:10047C00AA00AE00B200B900BD00C000C400C700A5
:10048C00CB00CF00D200D600DD00E100E400E80094
:020000040030CA
:0E000000240C1E1EFF0381FF0FC00FE00F40F7
:00000001FF
