:02000000E32DEE
:100006002000F801F9011030FC00710DF80DF90D12
:100016007408F8027508031C750FF90203181A28EC
:100026007408F80775080318750FF9070310F00D23
:08003600F10DFC0B0828080085
:10003E002000D603D6035608003C03182B28D603FF
:10004E000000000000002228000000000000000058
:04005E000000080096
:100062002000FB01FA01F901F801A001730DF80D5E
:100072007408F8027508031C750FF9027608031C50
:10008200760FFA027708031C770FFB020001031CAC
:100092000130A002F30D0730FC00730DF80DF90DCD
:1000A200FA0DFB0DA00D7408731C6928F80275087F
:1000B200031C750FF9027608031C760FFA02770803
:1000C200031C770FFB020001031C0130A0027A28F7
:1000D200F80775080318750FF90776080318760FE5
:1000E200FA0777080318770FFB070001031801309E
:1000F200A007F30DFC0B4E28720DF80DF90DFA0D49
:10010200FB0DA00D7408731C9828F8027508031CD7
:10011200750FF9027608031C760FFA027708031CA2
:10012200770FFB020001031C0130A002A928F80787
:1001320075080318750FF90776080318760FFA0782
:1001420077080318770FFB07000103180130A00797
:10015200F20D0730FC00720DF80DF90DFA0DFB0DD2
:10016200A00D7408721CC728F8027508031C750FCD
:10017200F9027608031C760FFA027708031C770F40
:10018200FB020001031C0130A002D828F807750801
:100192000318750FF90776080318760FFA07770820
:1001A2000318770FFB07000103180130A007F20DB7
:1001B200FC0BAC28710DF80DF90DFA0DFB0DA00D1D
:1001C2007408721CF628F8027508031C750FF902F0
:1001D2007608031C760FFA027708031C770FFB02DE
:1001E2000001031C0130A0020729F8077508031853
:1001F200750FF90776080318760FFA0777080318C0
:10020200770FFB07000103180130A007F10D07303B
:10021200FC00710DF80DF90DFA0DFB0DA00D74081F
:10022200711C2529F8027508031C750FF90276085E
:10023200031C760FFA027708031C770FFB020001FA
:10024200031C0130A0023629F80775080318750F40
:10025200F90776080318760FFA0777080318770F5D
:10026200FB07000103180130A007F10DFC0B0A295E
:10027200700DF80DF90DFA0DFB0DA00D7408711C2F
:100282005429F8027508031C750FF9027608031C3D
:10029200760FFA027708031C770FFB020001031C9A
:1002A2000130A0026529F80775080318750FF907D0
:1002B20076080318760FFA0777080318770FFB07FB
:1002C200000103180130A007F00D0730FC00700D8B
:1002D200F80DF90DFA0DFB0DA00D7408701C8329A1
:1002E200F8027508031C750FF9027608031C760FD5
:1002F200FA027708031C770FFB020001031C01308E
:10030200A0029429F80775080318750FF9077608F3
:100312000318760FFA0777080318770FFB07000117
:1003220003180130A007F00DFC0B68297018A729EB
:100332007408F80775080318750FF907760803188B
:0E034200760FFA0777080318770FFB070800FD
:0E0350004030F0001F30F100F201F301080010
:10035E0020002230FC00F801F901FA01FB01FC0338
:10036E000319E4290310FB0CFA0CF90CF80CF30C2E
:10037E00F20CF10CF00C031CB629FC030319D62960
:10038E007408F80775080318750FF907760803182F
:10039E00760FFA0777080318770FFB07BA29740848
:1003AE00F80775080318750FF90776080318760F06
:0C03BE00FA0777080318770FFB07080008
:1003CA00710DF80DF90D7408F8027508031C750F04
:1003DA00F902F00DF10D0F30FC00710DF80DF90D59
:1003EA007408701CFE29F8027508031C750FF902BF
:1003FA00032AF80775080318750FF907F00DF10DB0
:10040A00FC0BF22970180F2A7408F80775080318EC
:08041A00750FF907000008004E
:1004220020004A08A7004B08A800A901AA01013030
:04043200A20008001C
:10043600D0302000CC000730CD00CE01CF01D03027
:10044600F0000730F1000030F2000030F3004A08F7
:10045600F4004B08F500F601F701AF217008CC0057
:100466007108CD007208CE007308CF000030730209
:10047600031D472A00307202031D472A023071020B
:10048600031D472AB230700203184A2A792AB2306D
:10049600CC020230CD3B0030CE3BCF3B0530F000E6
:1004A600700803195C2ACF36CE0CCD0CCC0CFF3E5F
:1004B600542A4C08F0004D08F1004E08F2004F088F
:1004C600F3000130CC020030CD3BCE3BCF3B700871
:1004D6007104720473040319792A000000000000F5
:0E04E600000000000000000000005C2A08007A
:1004F4000230FC004930FD00FD0B7E2AFC0B7E2AF5
:06050400000000000800E9
:10050A007408003A031D922A7508003A031D922ABC
:10051A00FF30F0007F30F100EA2A2000FD01F901E6
:10052A00F801710870040319003471087506FA009D
:10053A00FA1BFD09FB01F51FA72AF409F509F40ABC
:10054A000319F50AF11FAE2AF009F109F00A031995
:10055A00F10A71087504FA00FA1BC32AE5217B180F
:10056A00D62AFD1F0034F009F109F00A0319F10A2D
:10057A00F809F909F80A0319F90A0034F51FD22A09
:10058A00F11BCE2A7108F9007008F800F101F00198
:10059A00B62AF101F001F00A0034F109F009FB0A68
:1005AA00B32AF80A0319F90A74087802031DB62A4D
:1005BA0075087902031DB62AF901F801F00A031930
:0C05CA00F10AF11FB62A0000FF340800FF
:1005D600A821E830F4000330F500F601F701AF2159
:1005E6007008D2007108D3007208D4007308D500D1
:1005F6004A08F4004B08F500F601F70131207008AF
:10060600D2007108D3007208D4007308D5007008B0
:10061600F5007108F6007208F7007308F800F8365E
:10062600F70CF60CF50CF836F70CF60CF50C75080D
:10063600F0007608F1007708F2007808F300F33648
:10064600F20CF10CF00C7008CE007108CF00A82156
:100656004C08F4004D08F500F601F701AF214E08ED
:10066600F9004F08FA00FB01FC010330F800790895
:10067600F4007A08F5007B08F6007C08F700780895
:1006860003194B2BF435F50DF60DF70DFF3E432BF5
:1006960031207008D2007108D3007208D4007308A4
:1006A600D5000A30F4000030F5004E08F0004F087F
:1006B600F10003207008CE007108CF0000307102EF
:1006C600031D672B0330700203186A2BB72B230810
:1006D6008400240885005508003C031D7C2B540823
:1006E600003C031D7C2B5308003C031D7C2B520849
:1006F600003C0318B52B250880044F080319932BDB
:10070600D001D10100305102031D8B2B4F0850023E
:100716000318932BD6011F20D00A0319D10A852B63
:100726004E08D6001F20260880054F080319AB2B5C
:10073600D001D10100305102031DA32B4F085002F6
:100746000318AB2BD6011F20D00A0319D10A9D2B03
:100756004E08D6001F200130D2020030D33BD43BD6
:0A076600D53B6E2B26088005080025
:100770002000FB01FA01F9018030F800F10CF00CC7
:10078000031CCB2B7408F90775080318750FFA07BB
:100790000318FB0A0310F01FD32B7408FA0775081F
:1007A0000318750FFB07FB0CFA0CF90CF80C031C73
:1007B000BE2B7B08F3007A08F2007908F100780874
:0407C000F00008003D
:1007C40020002208031DEB2B0130CA000030CB00AF
:1007D40011222708F0002808F1002908F2002A084D
:1007E400F3006D30F4004E30F500C630F6004130B1
:1007F400F700AF2139307007F5003030713DF60055
:100804000030723DF7000030733DF8007708F000C7
:100814007808F1000030F81BFF30F200F300FF30DD
:10082400F0057F30F1050030F205F3057008A700EC
:0E0834007108A8007208A9007308AA00080045
:1008420020003908C0003908BF0039083B0784007E
:1008520000303C3D850000088D000C143D08CA00A4
:100862003E08CB001B228C013F083B07840000306E
:100872003C3D850000088D008C143D08CA003E08EE
:10088200CB001B228C0140083B07840000303C3D1A
:10089200850000088D000C153D08CA003E08CB00FB
:0608A2001B228C0108007E
:1008A8006430F4000030F50020003908F0003A0800
:1008B800F10085227008C8007108C9004808C40002
:1008C8004908C5004808F0004908F1006430F40000
:1008D8000030F500B82370083902C60071083A3BA9
:1008E800C7000A30F4000030F5004608F000470859
:1008F800F10003207008C2007108C3000A30F40038
:100908000030F500B82370084602C0007108473B64
:10091800C1004908003C031D932C4808053C0318F6
:10092800992C0530C4020030C53B4308003C031D28
:100938009F2C4208053C0318A52C0530C202003044
:10094800C33B4108003C031DAB2C4008053C031881
:10095800B12C0530C0020030C13B40083B07840081
:1009680041083C3D850000088D000C143D08CA0074
:100978003E08CB001B228C0140083B07840041083D
:100988003C3D85000008F20042083B07840043080C
:100998003C3D85000008F10072087106031DF52C26
:1009A80042083B07840043083C3D85000008F200EC
:1009B80044083B07840045083C3D85000008F100D9
:1009C80072087106031DF52C3F08013A031DF52C2A
:1009D8006C30CA000730CB000530CC000030CD00A9
:1009E800EB2242083B07840043083C3D8500000891
:1009F8008D008C143D08CA003E08CB001B228C01D8
:100A080040083B07840041083C3D85000008F2008F
:100A180042083B07840043083C3D85000008F1007C
:100A280072087106031D392D42083B0784004308EC
:100A38003C3D85000008F20044083B078400450857
:100A48003C3D85000008F10072087106031D392D30
:100A58003F08013A031D392DBC30CA000130CB00D4
:100A68000530CC000030CD00EB2244083B07840061
:100A780045083C3D850000088D000C153D08CA005E
:100A88003E08CB001B228C0140083B07840041082C
:100A98003C3D85000008F20042083B0784004308FB
:100AA8003C3D85000008F10072087106031D7D2D8C
:100AB80042083B07840043083C3D85000008F200DB
:100AC80044083B07840045083C3D85000008F100C8
:100AD80072087106031D7D2D3F08013A031D7D2D07
:100AE8006C30CA000730CB000530CC000030CD0098
:040AF800EB220800E5
:100AFC002000BF013B08F1000130F0007108031920
:100B0C008A2DF035FF3E852D7008BE003908840013
:100B1C003A08850070080005F10071080130031DCA
:100B2C000030F0003D08F0060319B62D3C08003CDF
:100B3C000318A42D7A227A22BC039C2D3908840038
:100B4C003A0885003E080005F10071080130031DCC
:100B5C000030F0003D08F0060319B62DFF30BF0041
:060B6C003F08F000080044
:100B720020003908A3003A08A4003B08F100013024
:100B8200F00071080319C82DF035FF3EC32D70081F
:100B9200A500F0097008A6008030390784000030F3
:100BA2003A3D850070088005803084027008800517
:020BB200080039
:100BB40012001E00F003031DDA2DF103031DDA2DCC
:020BC400080027
:100BC6002000A101B401B501B601B701B8012300A7
:100BD6008C018D0121008D01F0308C0020008C01EC
:100BE6008D010D30B9000030BA000730BB00B925C1
:100BF6000C30B9000030BA000630BB000130BC0032
:100C0600BD017E2570080319152E7630AD004930DA
:100C1600AE007630AF004930B0007630B1004930D2
:100C2600B200212E7630AD004930AE003630AF002E
:100C36005C30B0006330B1007730B2003608B900DE
:100C4600BA015830BB008730BC000130BD0000300F
:100C5600BE002124B40A3408023A031D392EB60A0E
:100C6600B4013608043A031D392EB6010C30B9001A
:100C76000030BA000730BB000130BC00BD017E2544
:100C860070080319482E0130A10021080319262FE8
:100C96000C30B9000030BA000730BB000130BC0090
:100CA6000130BD007E2570080319262F80303806D6
:100CB600F00080307002031D622E1F3037020318C9
:100CC600252FE223E830F4000330F500852278086A
:100CD600F0007908F1007008AB007108AC00003034
:100CE6003806031D782E003037060130031D00300C
:100CF600F10080303806F00080307002031D852E2A
:100D060008303702013003180030F0007108F00493
:100D16000319A12E013035020318A12EB50A2B089E
:100D2600B9002C08BA002D30BB000030BC000130E1
:100D3600BD000030BE00BF0154248D2E8030380621
:100D4600F00080307002031DAA2E08303702031C03
:100D5600CB2E80303806F00080307002031DB52E91
:100D6600173037020318CB2E013035020318CB2E6D
:100D7600B50A2B08B9002C08BA002D30BB0000308C
:100D8600BC000130BD000030BE00BF015424B72EA8
:100D960080303806F00080307002031DD42E0030FB
:100DA6003702031CF52E80303806F00080307002C2
:100DB600031DDF2E1D3037020318F52E01303502D4
:100DC6000318F52EB50A2B08B9002C08BA002D30E9
:100DD600BB000030BC000130BD000030BE00BF01CA
:100DE6005424E12E80303806F00080307002031D56
:100DF600FE2E00303702031C1F2F80303806F0000D
:100E060080307002031D092F1F30370203181F2F71
:100E16000130350203181F2FB50A2B08B9002C081C
:100E2600BA002D30BB000030BC000130BD000030E0
:100E3600BE00BF0154240B2FB501A101B70A031947
:100E4600B80A592E3314331C442F0A3035020318BE
:100E5600442F2B08B9002C08BA002D30BB000030F7
:100E6600BC000130BD000030BE000130BF0054247C
:100E76003208013A031D422FA730B500432FB50AA9
:100E8600282F3310B501AB01AC01B701B801FB2D1A
:020E96004B2FE0
:0C0E98007634493436345C3463347734EB
:0C0EA400763449347634493476344934CD
:080EB00006340134303408342B
:020000040001F9
:04000E00443C131645
:00000001FF
