:02000000F42CDE
:10000600710DF80DF90D7408F8027508031C750FCB
:10001600F902F00DF10D0F30FC00710DF80DF90D20
:100026007408701C1C28F8027508031C750FF90269
:100036002128F80775080318750FF907F00DF10D5B
:10004600FC0B102870182D287408F807750803187B
:08005600750FF9070000080016
:10005E002000FB01FA01F901F801A001730DF80D62
:10006E007408F8027508031C750FF9027608031C54
:10007E00760FFA027708031C770FFB020001031CB0
:10008E000130A002F30D0730FC00730DF80DF90DD1
:10009E00FA0DFB0DA00D7408731C6728F802750885
:1000AE00031C750FF9027608031C760FFA02770807
:1000BE00031C770FFB020001031C0130A0027828FD
:1000CE00F80775080318750FF90776080318760FE9
:1000DE00FA0777080318770FFB07000103180130A2
:1000EE00A007F30DFC0B4C28720DF80DF90DFA0D4F
:1000FE00FB0DA00D7408731C9628F8027508031CDE
:10010E00750FF9027608031C760FFA027708031CA6
:10011E00770FFB020001031C0130A002A728F8078D
:10012E0075080318750FF90776080318760FFA0786
:10013E0077080318770FFB07000103180130A0079B
:10014E00F20D0730FC00720DF80DF90DFA0DFB0DD6
:10015E00A00D7408721CC528F8027508031C750FD3
:10016E00F9027608031C760FFA027708031C770F44
:10017E00FB020001031C0130A002D628F807750807
:10018E000318750FF90776080318760FFA07770824
:10019E000318770FFB07000103180130A007F20DBB
:1001AE00FC0BAA28710DF80DF90DFA0DFB0DA00D23
:1001BE007408721CF428F8027508031C750FF902F6
:1001CE007608031C760FFA027708031C770FFB02E2
:1001DE000001031C0130A0020529F8077508031859
:1001EE00750FF90776080318760FFA0777080318C4
:1001FE00770FFB07000103180130A007F10D073040
:10020E00FC00710DF80DF90DFA0DFB0DA00D740823
:10021E00711C2329F8027508031C750FF902760864
:10022E00031C760FFA027708031C770FFB020001FE
:10023E00031C0130A0023429F80775080318750F46
:10024E00F90776080318760FFA0777080318770F61
:10025E00FB07000103180130A007F10DFC0B082964
:10026E00700DF80DF90DFA0DFB0DA00D7408711C33
:10027E005229F8027508031C750FF9027608031C43
:10028E00760FFA027708031C770FFB020001031C9E
:10029E000130A0026329F80775080318750FF907D6
:1002AE0076080318760FFA0777080318770FFB07FF
:1002BE00000103180130A007F00D0730FC00700D8F
:1002CE00F80DF90DFA0DFB0DA00D7408701C8129A7
:1002DE00F8027508031C750FF9027608031C760FD9
:1002EE00FA027708031C770FFB020001031C013092
:1002FE00A0029229F80775080318750FF9077608FA
:10030E000318760FFA0777080318770FFB0700011B
:10031E0003180130A007F00DFC0B66297018A529F3
:10032E007408F80775080318750FF907760803188F
:0E033E00760FFA0777080318770FFB07080001
:10034C0020002230FC00F801F901FA01FB01FC034A
:10035C000319DB290310FB0CFA0CF90CF80CF30C49
:10036C00F20CF10CF00C031CAD29FC030319CD2984
:10037C007408F80775080318750FF9077608031841
:10038C00760FFA0777080318770FFB07B129740863
:10039C00F80775080318750FF90776080318760F18
:0C03AC00FA0777080318770FFB0708001A
:1003B8002000FB01FA01F9018030F800F10CF00C83
:1003C800031CEF297408F90775080318750FFA0755
:1003D8000318FB0A0310F01FF7297408FA077508B9
:1003E8000318750FFB07FB0CFA0CF90CF80C031C2F
:1003F800E2297B08F3007A08F2007908F10078080E
:04040800F0000800F8
:10040C0020007008F100F0010830FC007108F40CB9
:10041C000318142AFC0B0D2AF10100340310192ABD
:10042C00F40C0318F107F10CF00CFC0B162A080065
:0E043C00F430F0000130F100F201F30108008D
:10044A002000F801F9011030FC00710DF80DF90DCA
:10045A007408F8027508031C750FF90203183C2A80
:10046A007408F80775080318750FF9070310F00DDB
:08047A00F10DFC0B2A2A080019
:100482002000B903B9033908003C03184D2AB90307
:10049200000000000000442A0000000000000000EC
:0404A200000008004E
:1004A6007408003A031D602A7508003A031D602A85
:1004B600FF30F0007F30F100B82A2000FD01F9017D
:1004C600F801710870040319003471087506FA0002
:1004D600FA1BFD09FB01F51F752AF409F509F40A53
:1004E6000319F50AF11F7C2AF009F109F00A03192C
:1004F600F10A71087504FA00FA1B912A03207B1889
:10050600A42AFD1F0034F009F109F00A0319F10AC3
:10051600F809F909F80A0319F90A0034F51FA02A9F
:10052600F11B9C2A7108F9007008F800F101F0012E
:10053600842AF101F001F00A0034F109F009FB0AFE
:10054600812AF80A0319F90A74087802031D842A15
:1005560075087902031D842AF901F801F00A0319C6
:0C056600F10AF11F842A0000FF34080095
:10057200E830F4000330F50020002D08F0002E08CA
:10058200F10053227008B1000030F100E830F400AD
:100592000330F500DC217008B6007108B700360898
:1005A2002D02F00037082E3BF1006430F4000030D9
:1005B200F50053227008B0003608F200F301720809
:1005C2002D02B40073082E3BB5006430F4000622FD
:1005D2007008B2007108B30032083402F000330828
:1005E200353BF1000A30F4000030F5005322700868
:1005F200AF0036082D02F20032087202B2000A3051
:10060200F400062270083202F000E53084008530E2
:100612008500700884070318850A00088D000C14F1
:100622000230FC009E30FD00FD0B152BFC0B152B40
:1006320000008C01E5308400853085002F08840796
:100642000318850A00088D008C140230FC009E30CD
:10065200FD00FD0B2A2BFC0B2A2B00008C01E53040
:10066200840085308500300884070318850A000855
:100672008D000C150230FC009E30FD00FD0B3F2B5F
:10068200FC0B3F2B00008C01E53084008530850097
:10069200310884070318850A00088D008C15023082
:1006A200FC009E30FD00FD0B542BFC0B542B000074
:0406B2008C010800AF
:1006B6001E22E830F4000330F500F601F701A6210A
:1006C6007008B5007108B6007208B7007308B80064
:1006D6002D08F4002E08F500F601F7012F2070080A
:1006E600B5007108B6007208B7007308B800700844
:1006F600F5007108F6007208F7007308F800F8367E
:10070600F70CF60CF50CF836F70CF60CF50C75082C
:10071600F0007608F1007708F2007808F300F33667
:10072600F20CF10CF00C7008B1007108B2001E2238
:100736002F08F4003008F500F601F701A62131086C
:10074600F9003208FA00FB01FC010330F8007908D1
:10075600F4007A08F5007B08F6007C08F7007808B4
:100766000319BB2BF435F50DF60DF70DFF3EB32B34
:100776002F207008B5007108B6007208B70073081C
:10078600B8000A30F4000030F5003108F0003208F5
:10079600F10025227008B1007108B2000030710224
:1007A600031DD72B033070020318DA2B272C2108E0
:1007B6008400220885003808003C031DEC2B37080E
:1007C600003C031DEC2B3608003C031DEC2B3508C2
:1007D600003C0318252C2308800432080319032C37
:1007E600B301B40100303402031DFB2B320833027F
:1007F6000318032CB9014122B30A0319B40AF52BD5
:100806003108B900412224088005320803191B2C3F
:10081600B301B40100303402031D132C3208330235
:1008260003181B2CB9014122B30A0319B40A0D2C73
:100836003108B90041220130B5020030B63BB73B62
:0A084600B83BDE2B240880050800F3
:1008500012001E00F003031D282CF103031D282C99
:0208600008008E
:1008620020002D08A1002E08A2002F08F10001305F
:10087200F00071080319402CF035FF3E3B2C700844
:10088200A300F0097008A40080302D078400003016
:100892002E3D850070088005803084027008800536
:0208A20008004C
:1008A400E830F4000330F50020002D08F0002E0895
:1008B400F10053227008B1000030F100E830F40078
:1008C4000330F500DC217008B6007108B700360863
:1008D4002D02F00037082E3BF1006430F4000030A4
:1008E400F50053227008B0003608F200F3017208D4
:1008F4002D02B40073082E3BB5006430F4000622C8
:100904007008B2007108B30032083402F0003308F2
:10091400353BF1000A30F4000030F5005322700832
:10092400AF0036082D02F20032087202B2000A301B
:10093400F400062270083202F000E53084008530AD
:100944008500700884070318850A00088D000C14BC
:100954000230FC009E30FD00FD0BAE2CFC0BAE2CD7
:1009640000008C01E5308400853085002F08840761
:100974000318850A00088D008C140230FC009E3098
:10098400FD00FD0BC32CFC0BC32C00008C01E530D7
:10099400840085308500300884070318850A000820
:1009A4008D000C150230FC009E30FD00FD0BD82C90
:1009B400FC0BD82C00008C01E530840085308500C8
:1009C400310884070318850A00088D008C1502304D
:1009D400FC009E30FD00FD0BED2CFC0BED2C00000B
:0409E4008C0108007A
:1009E8002000A501A601A701A801A901AA01AB0140
:1009F800AC0121008D018C0120008C018D010D308E
:100A0800AD000030AE000730AF0031242908AD003A
:100A18002A08AE005224A50A25080C3A031DE32D26
:100A2800A501A90A0319AA0AA60A2608053A031D58
:100A38005C2DA6010230A8078030F00080302A061D
:100A48007002031D292D29080F3C031C2F2D02308D
:100A5800AB070030AC3D00302A06031D352D0F30A2
:100A68002906031D5C2D6E30270203185C2DBA3051
:100A7800AD000230AE000A30AF000030B0005B239A
:100A88002908AD002A08AE005224A50A25080C3A08
:100A9800031D5A2DA501A90A0319AA0AA60A2608A0
:100AA800053A031D5A2DA6010230A807A70A372DBB
:100AB8002808103A031DE32DBA30AD000230AE000D
:100AC8006430AF000030B0005B232B08AD002C0869
:100AD800AE00B9221130FC003A30FD00FD0B722D3A
:100AE800FC0B722D00002B08AD002C08AE00B922BB
:100AF8001130FC003A30FD00FD0B802DFC0B802DE1
:100B080000002B08AD002C08AE00B9221130FC0003
:100B18003A30FD00FD0B8E2DFC0B8E2D00002B08AE
:100B2800AD002C08AE00B9221130FC003A30FD00AF
:100B3800FD0B9C2DFC0B9C2D0000BA30AD00023043
:100B4800AE006430AF000030B0005B232908AD0070
:100B58002A08AE0052241130FC003A30FD00FD0B8B
:100B6800B32DFC0BB32D00002908AD002A08AE00F8
:100B780052241130FC003A30FD00FD0BC12DFC0B56
:100B8800C12D00002908AD002A08AE0052241130FA
:100B9800FC003A30FD00FD0BCF2DFC0BCF2D0000E3
:100BA8002908AD002A08AE0052241130FC003A3062
:100BB800FD00FD0BDD2DFC0BDD2D00005C2D0A2D4D
:020BC800E42D1A
:100BCA003F3406345B344F3466346D347D34073435
:040BDA007F346F34C1
:020000040001F9
:04000E00E23F1316A4
:00000001FF
