:02000000EE2AE6
:1000060020003E082400910014180A280728110829
:04001600F0000800EE
:10001A002000FB01FA01F901F801A001730DF80DA6
:10002A007408F8027508031C750FF9027608031C98
:10003A00760FFA027708031C770FFB020001031CF4
:10004A000130A002F30D0730FC00730DF80DF90D15
:10005A00FA0DFB0DA00D7408731C4528F8027508EB
:10006A00031C750FF9027608031C760FFA0277084B
:10007A00031C770FFB020001031C0130A002562863
:10008A00F80775080318750FF90776080318760F2D
:10009A00FA0777080318770FFB07000103180130E6
:1000AA00A007F30DFC0B2A28720DF80DF90DFA0DB5
:1000BA00FB0DA00D7408731C7428F8027508031C44
:1000CA00750FF9027608031C760FFA027708031CEB
:1000DA00770FFB020001031C0130A0028528F807F4
:1000EA0075080318750FF90776080318760FFA07CB
:1000FA0077080318770FFB07000103180130A007E0
:10010A00F20D0730FC00720DF80DF90DFA0DFB0D1A
:10011A00A00D7408721CA328F8027508031C750F39
:10012A00F9027608031C760FFA027708031C770F88
:10013A00FB020001031C0130A002B428F80775086D
:10014A000318750FF90776080318760FFA07770868
:10015A000318770FFB07000103180130A007F20DFF
:10016A00FC0B8828710DF80DF90DFA0DFB0DA00D89
:10017A007408721CD228F8027508031C750FF9025C
:10018A007608031C760FFA027708031C770FFB0226
:10019A000001031C0130A002E328F80775080318C0
:1001AA00750FF90776080318760FFA077708031808
:1001BA00770FFB07000103180130A007F10D073084
:1001CA00FC00710DF80DF90DFA0DFB0DA00D740868
:1001DA00711C0129F8027508031C750FF9027608CB
:1001EA00031C760FFA027708031C770FFB02000143
:1001FA00031C0130A0021229F80775080318750FAD
:10020A00F90776080318760FFA0777080318770FA5
:10021A00FB07000103180130A007F10DFC0BE628CB
:10022A00700DF80DF90DFA0DFB0DA00D7408711C77
:10023A003029F8027508031C750FF9027608031CA9
:10024A00760FFA027708031C770FFB020001031CE2
:10025A000130A0024129F80775080318750FF9073C
:10026A0076080318760FFA0777080318770FFB0743
:10027A00000103180130A007F00D0730FC00700DD3
:10028A00F80DF90DFA0DFB0DA00D7408701C5F290D
:10029A00F8027508031C750FF9027608031C760F1D
:1002AA00FA027708031C770FFB020001031C0130D6
:1002BA00A0027029F80775080318750FF907760860
:1002CA000318760FFA0777080318770FFB07000160
:1002DA0003180130A007F00DFC0B4429701883297C
:1002EA007408F80775080318750FF90776080318D4
:0E02FA00760FFA0777080318770FFB07080046
:1003080020008C103A08BE00032020003C08BE00E4
:10031800032020008C143B08BE00032020003D0869
:0A032800BE00032020008C10080026
:10033200FF302000AD00FF30AE00FF30AF00FF30D5
:10034200B0000330A1000030A2003E30A300003014
:10035200A4002400951221000D110D128D14240009
:0A0362009501403094009516080044
:10036C0020008C100C30BE00032001302000BE0099
:08037C00032020008C1408008E
:1003840001302000B600B701B801B9013408003CBF
:10039400031DD6293308003C031DD6293208003C2E
:1003A400031DD6293108003C031CFA293608F10044
:1003B4003708F2003808F3003908F4003508F10270
:1003C4000030F23BF33BF43B8030F00080307406A5
:1003D4007002031DF7297308003C031DF7297208F6
:1003E400003C031DF7297108003C0318FA29372A39
:1003F4008C103608BE0003200A30F400F501F60123
:10040400F70120003108F0003208F1003308F2004F
:100414003408F3000D207808F0007908F1007A0818
:10042400F2007B08F3007008BE00032020008C1447
:100434000A30F400F501F601F7013108F000320842
:10044400F1003308F2003408F3000D207008B10005
:100454007108B2007208B3007308B4000130B60723
:0C0464000030B73DB83DB93DC829080084
:1004700012001E00F003031D382AF103031D382A61
:02048000080072
:1004820001302000B600B701B801B9013408003CC0
:10049200031D552A3308003C031D552A3208003C2F
:1004A200031D552A3108003C031C792A3608F10045
:1004B2003708F2003808F3003908F4003508F10271
:1004C2000030F23BF33BF43B8030F00080307406A6
:1004D2007002031D762A7308003C031D762A7208F7
:1004E200003C031D762A7108003C0318792AB62ABB
:1004F2008C103608BE0003200A30F400F501F60124
:10050200F70120003108F0003208F1003308F20050
:100512003408F3000D207808F0007908F1007A0819
:10052200F2007B08F3007008BE00032020008C1448
:100532000A30F400F501F601F7013108F000320843
:10054200F1003308F2003408F3000D207008B10006
:100552007108B2007208B3007308B4000130B60724
:0C0562000030B73DB83DB93D472A080005
:10056E00992109302000BA000930BB00FF30BC00D1
:10057E00FF30BD0084210A30BA000A30BB000F30B4
:10058E00BC000F30BD0084210B30BA000B30BB0015
:10059E000730BC000730BD0084210C30BA000C308F
:1005AE00BB000130BC000130BD0084210F30BA0009
:1005BE000F30BB000130BC000130BD0084210F3074
:0E05CE00BA000F30BB00BC01BD018421080043
:1005DC0023008D0120008C1021008C109921B72252
:1005EC00B6212908B1002A08B2002B08B3002C0848
:1005FC00B4000730B50041222908B1002A08B20026
:10060C002B08B3002C08B4000730B500C221A90197
:10061C00AA01AB01AC0105302C02031D1F2BF530D8
:10062C002B02031D1F2BE0302A02031D1F2BFF3052
:10063C00290203183C2B2908B1002A08B2002B0808
:10064C00B3002C08B4000730B50041226830FC0020
:10065C00E430FD00FD0B302BFC0B302B0000013087
:10066C00A9070030AA3DAB3DAC3D112B2808003C3E
:10067C00031D4A2B2708003C031D4A2B2608003C6F
:10068C00031D4A2B25080A3C031C7C2BA501A60143
:10069C00A701A80105302802031D5E2BF5302702A7
:1006AC00031D5E2BE0302602031D5E2BFF3025025E
:1006BC0003187B2B2508B1002608B2002708B300CD
:1006CC002808B4000730B500C2216830FC00E430C3
:1006DC00FD00FD0B6F2BFC0B6F2B00000130A507F1
:1006EC000030A63DA73DA83D502B4C2B0D2B7D2B50
:020000040001F9
:04000E00243113176F
:00000001FF
