:020000003A2A9A
:0E00060022008C168C168C168C128C120800A0
:1000140022008C168C168C168C168C168C168C1250
:020024000800D2
:1000260003200320032003200320032003200320B2
:1000360003200320032003200320032003200320A2
:100046000320032003200320032003200320032092
:020056000800A0
:100058000A200A200A200A200A200A200A200A2048
:100068000A200A200A200A200A200A200A200A2038
:100078000A200A200A200A200A200A200A200A2028
:0200880008006E
:10008A000A200A200A200A200A200A200A200A2016
:10009A00032003200320032003200320032003203E
:1000AA00032003200320032003200320032003202E
:0200BA0008003C
:1000BC0003200A200A200A200A200A2003200A20F2
:1000CC0003200320032003200A200A200A200A20F0
:1000DC0003200320032003200A2003200A200A20E7
:0200EC0008000A
:1000EE0012001E00F003031D7728F103031D77286D
:0200FE000800F8
:100100002000A00180302006F0008030053A700207
:1001100003188E282C202000A00A822813201320E8
:100120002C202C20132013202000A001803020063A
:10013000F0008030093A70020318A2282C20200019
:10014000A00A96281320452045201320132045207F
:10015000452013202000A00180302006F0008030D0
:10016000073A70020318B8282C202000A00AAC28F7
:10017000132045202C202C20452045202C202C20ED
:10018000452013202000A00180302006F0008030A0
:10019000033A70020318D0282C202000A00AC4289B
:1001A000A00180302006F0008030033A700203186E
:1001B000DD282C202000A00AD12813202C202C2060
:1001C00013202C202C2013202C202C201320200046
:1001D000A00180302006F0008030033A700203183E
:1001E000F5282C202000A00AE928A0018030200654
:1001F000F0008030033A7002031802292C202000FE
:10020000A00AF62813202C202C2013202C202C2090
:1002100013202C202C2013202000A0018030200649
:10022000F0008030033A700203181A292C202000B5
:10023000A00A0E292C202C20132013202C20200073
:10024000A00180302006F0008030063A70020318CA
:100250002D2913202000A00A21292C20132013204F
:100260002C202C202C20132045204520132020005A
:10027000A00180302006F0008030053A700203189B
:10028000452945202000A00A39295E201320452059
:10029000452013202C20132045204520132020002A
:1002A000A00180302006F0008030073A7002031869
:1002B0005D2945202000A00A51295E2013204520F9
:1002C0004520132013202C2013202000A001803073
:1002D0002006F0008030033A70020318732945208D
:1002E0002000A00A6729132045204520132045201F
:1002F00045205E2013202C20132013202C201320B7
:100300002000A00180302006F0008030093A700201
:1003100003188E2945202000A00A82295E20132080
:100320002C20132013202C2013202000A00180302B
:100330002006F0008030093A70020318A3294520F6
:100340002000A00A97295E2013202C2013202000D3
:10035000A00113202C2013205E20803020002006D6
:10036000F0008030073A70020318BA2945202000B7
:10037000A00AAD29A0015E205E2013202C201320AE
:100380001320132013205E205E20803020002006E2
:10039000F0008030053A70020318D2294520200071
:1003A000A00AC529A00180302006F0008030033A61
:1003B00070020318DF295E202000A00AD329A001C3
:1003C0001320132013202C2013202C2013208030E6
:1003D00020002006F0008030083A70020318F4294B
:1003E0005E202000A00AE729A00113202C20132062
:1003F0002C202C202C2013201320132080302000B0
:100400002006F0008030063A700203180B2A5E20A6
:100410002000A00AFE29A0011320132013202C2065
:100420002C20803020002006F0008030043A70023A
:1004300003181E2A2C202000A00A112AA0018030B7
:100440002006F0008030083A700203182B2A13208F
:100450002000A00A1F2AA00180302006F000803072
:10046000043A70020318382A2C202000A00A2C2AF3
:04047000A0010800DF
:1004740021008C0123008C0122008C01F330210027
:0804840099008020432A452A5B
:020000040001F9
:04000E00E43F1317A1
:00000001FF
